{
  "contractName": "myCoin",
  "abi": [
    {
      "inputs": [],
      "payable": false,
      "stateMutability": "nonpayable",
      "type": "constructor"
    },
    {
      "anonymous": false,
      "inputs": [
        {
          "indexed": true,
          "name": "_from",
          "type": "address"
        },
        {
          "indexed": true,
          "name": "_to",
          "type": "address"
        },
        {
          "indexed": false,
          "name": "_value",
          "type": "uint256"
        }
      ],
      "name": "Transfer",
      "type": "event"
    },
    {
      "constant": false,
      "inputs": [
        {
          "name": "receiver",
          "type": "address"
        },
        {
          "name": "amount",
          "type": "uint256"
        }
      ],
      "name": "sendCoin",
      "outputs": [
        {
          "name": "sufficient",
          "type": "bool"
        }
      ],
      "payable": false,
      "stateMutability": "nonpayable",
      "type": "function"
    },
    {
      "constant": false,
      "inputs": [
        {
          "name": "addr",
          "type": "address"
        }
      ],
      "name": "getBalance",
      "outputs": [
        {
          "name": "",
          "type": "uint256"
        }
      ],
      "payable": false,
      "stateMutability": "nonpayable",
      "type": "function"
    }
  ],
  "bytecode": "0x6060604052341561000f57600080fd5b620186a06000803273ffffffffffffffffffffffffffffffffffffffff1673ffffffffffffffffffffffffffffffffffffffff168152602001908152602001600020819055506102c5806100646000396000f30060606040526004361061004c576000357c0100000000000000000000000000000000000000000000000000000000900463ffffffff16806390b98a1114610051578063f8b2cb4f146100ab575b600080fd5b341561005c57600080fd5b610091600480803573ffffffffffffffffffffffffffffffffffffffff169060200190919080359060200190919050506100f8565b604051808215151515815260200191505060405180910390f35b34156100b657600080fd5b6100e2600480803573ffffffffffffffffffffffffffffffffffffffff16906020019091905050610251565b6040518082815260200191505060405180910390f35b6000816000803373ffffffffffffffffffffffffffffffffffffffff1673ffffffffffffffffffffffffffffffffffffffff168152602001908152602001600020541015610149576000905061024b565b816000803373ffffffffffffffffffffffffffffffffffffffff1673ffffffffffffffffffffffffffffffffffffffff16815260200190815260200160002060008282540392505081905550816000808573ffffffffffffffffffffffffffffffffffffffff1673ffffffffffffffffffffffffffffffffffffffff168152602001908152602001600020600082825401925050819055508273ffffffffffffffffffffffffffffffffffffffff163373ffffffffffffffffffffffffffffffffffffffff167fddf252ad1be2c89b69c2b068fc378daa952ba7f163c4a11628f55a4df523b3ef846040518082815260200191505060405180910390a3600190505b92915050565b60008060008373ffffffffffffffffffffffffffffffffffffffff1673ffffffffffffffffffffffffffffffffffffffff1681526020019081526020016000205490509190505600a165627a7a723058203dd40e7a9da3fdacdc3a71287df3738c7e913198d9e678304e5e38f373a6498d0029",
  "source": "pragma solidity ^0.4.4;\n\n// Declares the contract\ncontract myCoin {\n\n\t// This is a mapping that works like a dictionary or associated array in other languages.\n\tmapping (address => uint) balances;\n\n\t// This registers an event\n\tevent Transfer(address indexed _from, address indexed _to, uint256 _value);\n\n\t// The contract constructor, which is called when the contract is deployed to the blockchain. The contract is persistent on the blockchain, so it remains until it is removed.\n\tfunction myCoin() {\n\t\tbalances[tx.origin] = 100000;\n\t}\n\n\t// This method modifies the blockchain. The sender is required to fuel the transaction in Ether.\n\tfunction sendCoin(address receiver, uint amount) returns(bool sufficient) {\n\t\tif (balances[msg.sender] < amount) return false;\n\t\tbalances[msg.sender] -= amount;\n\t\tbalances[receiver] += amount;\n\t\tTransfer(msg.sender, receiver, amount);\n\t\treturn true;\n\t}\n\n\t// This method does not modify the blockchain, so it does not require an account to fuel for the call.\n\tfunction getBalance(address addr) returns(uint) {\n\t\treturn balances[addr];\n\t}\n}\n",
  "sourcePath": "/Users/quinnwu/Desktop/UPenn/MSP/azure-blockchain/truffle/contracts/myCoin.sol",
  "compiler": {
    "name": "solc",
    "version": "0.4.19+commit.c4cbbb05.Emscripten.clang"
  },
  "schemaVersion": "2.0.0",
  "updatedAt": "2018-03-30T19:26:44.117Z"
}